:100000000C9408070C944F070C944F070C944F075F
:100010000C944F070C944F070C944F070C944F0708
:100020000C944F070C944F070C9471140C944315C7
:100030000C9424240C944F070C944F070C944F07F6
:100040000C944F070C944F070C944F070C944F07D8
:100050000C944F070C94C4240C944F070C944F0736
:100060000C944F070C9487090C944F070C944F077E
:100070000C944F070C944F070C944F070C944F07A8
:100080000C944F070C944F070C944F070C944F0798
:100090000C944F070C944F070C944F070C944F0788
:1000A0000C944F070C944F070C944F070C08110841
:1000B00016081B08200825082A082F08D70DDB0D75
:1000C000DF0DE30DE70DEB0DEF0DF30DF70DFB0D60
:1000D000FF0D030E070E0B0E0F0E130E170E1B0E49
:1000E0001F0E230E270E2B0E2F0E330E370E3B0E38
:1000F0003F0E430E470E4B0E4F0E530E570E5B0E28
:100100005F0E630EA30ED50D670E690E6B0E6D0E9E
:10011000710E750E790E7D0E820E870E8B0E8F0E70
:10012000930E970E9B0EA10EA10EA10EA10EA10E75
:10013000A10EA10EA10EA10EA10EA10EA10EA10E47
:10014000A10EA10EA10EA10EA10EA10E9F0EB01523
:10015000D215C516D215C51617163A16C5168F161E
:10016000A216BE19BE19E819E819431A771A671CB6
:10017000671C8E1A671C791B791B3F1C671C671C48
:10018000541C01E00119021902E0746401E2013D0E
:10019000023D02E20001E001E20114021402E20267
:1001A000E000011E021E011F021F011E021E012788
:1001B00002270127022701270227012702270127FB
:1001C00002270121022101270227012702270127F7
:1001D0000227012702270127022701230223011FEB
:1001E000021F0121022101E10107020702E10001D2
:1001F000E30115021502E374FF0106020601040281
:1002000004010F020F01060206012802280001E383
:100210000115021502E374FF01110211011202120D
:100220000117021701080208011302130104020456
:1002300001070207012802280001F502F574FF01F9
:100240000802080001F502F574FF010E020E74FFAA
:1002500074FF74FF74FF74FF74FF74FF74FF012850
:1002600002280001F502F574FF01170217001F14A0
:100270001A16041D1B06202115080709190522233B
:100280001C170A0B11801E352B39797A7B2C2425FB
:10029000180C0E0D1080742A31287C7D7E7F262755
:1002A0001213330F36802D2E302F343837802563CC
:1002B0000025730D0A00522C310D0A0053592C46AB
:1002C0004646340D0A0053482C303033430D0A00A3
:1002D000537E2C360D0A0053572C383030300D0A1F
:1002E00000534D2C340D0A0053532C4B6579626F2B
:1002F0006172642F4D6F7573650D0A00532D2C5478
:100300006D6B42540D0A0053462C310D0A002D2D01
:100310002D0D0A0045786974696E6720636F6E66FB
:100320006967206D6F6465202E2E2E0A002B0D0A42
:1003300000760D0A0024242400456E746572696EEF
:100340006720636F6E666967206D6F6465202E2E6F
:100350002E0A00522C310D0A0053522C5A0D0A005D
:10036000555342206D6F64650A004175746F206DAE
:100370006F64650A00757074696D653A20253032C6
:100380007520253032753A253032753A2530327570
:100390000A0052656D6F746557616B657570456EC7
:1003A00061626C65643A2025580A00555342205317
:1003B000746174653A2025730A00636F6E6669671D
:1003C0005F6D6F64653A2025580A00726E34325FA3
:1003D0006175746F636F6E6E656374696E672829EB
:1003E0003A2025580A00726E34323A2025730A00EA
:1003F000666F7263655F7573623A2025580A0070F4
:10040000726F746F636F6C3A2025730A000A2D2D8A
:100410002D2D2D20524E2D343220696E666F202DE9
:100420002D2D2D2D0A00753A20202020202020740B
:100430006F67676C6520466F726365205553422075
:100440006D6F64650A00703A202020202020207003
:10045000616972696E670A00536C636B3A202020F1
:1004600020524E2D343220696E697469616C697A4C
:10047000650A0044656C3A2020202020656E746572
:10048000722F6578697420524E2D343220636F6E5E
:10049000666967206D6F64650A00693A2020202034
:1004A000202020524E2D343220696E666F0A000AD9
:1004B0000A2D2D2D2D2D20426C7565746F6F74687B
:1004C00020524E2D34322048656C70202D2D2D2D5C
:1004D0002D0A004C4544207374617475733A2025CD
:1004E0003032580A002025303258002563005B73F3
:1004F0005D004B6579626F61726420737461727420
:100500000A004B6579626F61726420696E69740AD2
:1005100000524E2D3432207461736B20696E697401
:100520000A00524E2D343220696E69740A000A5353
:100530006574757048617264776172650A005B4426
:100540005D005B435D001203480048004B00420021
:1005500020006D006F00640000000E0374002E0088
:100560006D002E006B002E00000004030904090238
:100570008D00050100A03209040000010301010003
:100580000921110100012240000705810308000A2A
:1005900009040100010301020009211101000122E7
:1005A0004D000705820308000A0904020001030048
:1005B000000009211101000122360007058303080C
:1005C000000A0904030002030000000921110100D0
:1005D00001222200070584032000010705040320EF
:1005E00000010904040001030000000921110100B9
:1005F00001223900070585032000011201100100C6
:10060000000008EDFE42420401010200010501095B
:1006100006A101050719E029E715002501950875D0
:1006200001810205081901290595057501910295B9
:1006300001750391010507190029F715002501959A
:10064000F875018102C00631FF0974A10109751511
:100650000026FF009520750881020976150026FF07
:1006600000952075089102C005010980A10185024D
:1006700016810026B7001A81002AB700751095016F
:100680008100C0050C0901A1018503160100269C0B
:10069000021A01002A9C02751095018100C0050113
:1006A0000902A1010901A100050919012905150087
:1006B00025019505750181029501750381010501EB
:1006C000093009311581257F9502750881060938A1
:1006D0001581257F950175088106050C0A380215DC
:1006E00081257F950175088106C0C005010906A115
:1006F00001050719E029E715002501950875018115
:1007000002950175088101050819012905950575EE
:100710000191029501750391010507190029FF1543
:100720000026FF00950675088100C0636F6E737523
:100730006D65723A20253034580A007379737465F8
:100740006D3A20253034580A000A002530325820EE
:10075000006B6579626F6172643A20004C45443ADF
:1007600020253032580A00253032583A20253038BA
:100770006225730A00722F632030313233343536EC
:10078000370A0064656C5F6B65795F6269743A2053
:1007900063616E27742064656C3A20253032580AF4
:1007A000006164645F6B65795F6269743A206361BC
:1007B0006E2774206164643A20253032580A004F55
:1007C0006E6573686F743A2074696D656F75740A2D
:1007D00000290A002575002F002575005D280025D9
:1007E00064002000256400200025640020002564AA
:1007F000007C0025303258006D6F7573656B65792C
:10080000205B62746E7C782079207620685D287287
:1008100065702F61636C293A205B006D6B5F7768B0
:1008200065656C5F74696D655F746F5F6D6178207D
:100830003D2025640A006D6B5F776865656C5F6DB0
:1008400061785F7370656564203D2025640A006DE2
:100850006B5F74696D655F746F5F6D6178203D20BB
:1008600025640A006D6B5F6D61785F737065656408
:10087000203D2025640A006D6B5F696E7465727699
:10088000616C203D2025640A006D6B5F64656C61BE
:1008900079203D2025640A006D6B5F776865656C83
:1008A0005F74696D655F746F5F6D6178203D2025B1
:1008B000640A006D6B5F776865656C5F6D61785F7A
:1008C0007370656564203D2025640A006D6B5F745C
:1008D000696D655F746F5F6D6178203D2025640AE6
:1008E000006D6B5F6D61785F7370656564203D209E
:1008F00025640A006D6B5F696E74657276616C20A9
:100900003D2025640A006D6B5F64656C6179203D54
:100910002025640A000A00257500363A20776865AC
:10092000656C5F74696D655F746F5F6D61783A20A7
:10093000000A00257500353A20776865656C5F6DA3
:1009400061785F73706565643A20000A0025750060
:10095000343A2074696D655F746F5F6D61783A2019
:10096000000A00257500333A206D61785F73706569
:1009700065643A20000A00257500323A20696E74D9
:10098000657276616C286D73293A20000A0025751E
:1009900000313A2064656C6179282A31306D732901
:1009A0003A20000A092D2056616C756573202D0AC6
:1009B000004D3E004D25643E20003F0073657420CD
:1009C00064656661756C740A00433E200077686553
:1009D00072652064656C74613A20637572736F721E
:1009E0003D25642C20776865656C3D25640A536558
:1009F0006520687474703A2F2F656E2E77696B6965
:100A000070656469612E6F72672F77696B692F4D0E
:100A10006F7573655F6B6579730A000A092D204D48
:100A20006F7573656B6579202D0A4553432F713AB5
:100A300009717569740A313A0964656C6179282A0B
:100A400031306D73290A323A09696E7465727661C4
:100A50006C286D73290A333A096D61785F7370658C
:100A600065640A343A0974696D655F746F5F6D611E
:100A7000780A353A09776865656C5F6D61785F73F0
:100A8000706565640A363A09776865656C5F7469F4
:100A90006D655F746F5F6D61780A0A703A097072F4
:100AA000696E742076616C7565730A643A097365C2
:100AB000742064656661756C74730A75703A092BED
:100AC000310A646F776E3A092D310A706775703A92
:100AD000092B31300A7067646F776E3A092D313017
:100AE0000A0A7370656564203D2064656C7461203A
:100AF0002A206D61785F7370656564202A202872F2
:100B00006570656174202F2074696D655F746F5F17
:100B10006D6178290A003F004D3E2000433E2000D1
:100B20004C25640A000A092D20436F6E736F6C65B3
:100B3000202D0A4553432F713A09717569740A6D66
:100B40003A096D6F7573656B65790A000A092D2086
:100B50004D61676963202D0A643A096465627567AF
:100B60000A783A096465627567206D617472697804
:100B70000A6B3A096465627567206B6579626F611B
:100B800072640A6D3A096465627567206D6F7573EA
:100B9000650A763A0976657273696F6E0A733A0967
:100BA0007374617475730A633A09636F6E736F6C63
:100BB00065206D6F64650A302D343A096C61796582
:100BC00072302D34284631302D4634290A50617553
:100BD000733A09626F6F746C6F616465720A6E3A82
:100BE000094E4B524F0A003F004E4B524F3A206F76
:100BF00066660A004E4B524F3A206F6E0A007469C7
:100C00006D65725F72656164333228293A20253040
:100C1000346C580A006B6579626F6172645F6E6B49
:100C2000726F3A2025580A006B6579626F617264B1
:100C30005F69646C653A2025580A006B6579626FBC
:100C40006172645F70726F746F636F6C3A202558C5
:100C50000A00686F73745F6B6579626F6172645FBD
:100C60006C65647328293A2025580A000A092D204A
:100C7000537461747573202D0A004743433A20353D
:100C80002E342E30204156522D4C4942433A2032C8
:100C90002E302E30204156525F415243483A206157
:100CA0007672350A004F5054494F4E533A204C55F6
:100CB0004641204D4F5553454B45592045585452B8
:100CC000414B455920434F4E534F4C4520434F4DC8
:100CD0004D414E44204E4B524F204B45594D4150B3
:100CE0005F53454354494F4E203531320A00425537
:100CF000494C443A2035643438663231622D646997
:100D0000727479202831353A33353A3435204D61C3
:100D1000792031332032303139290A005649443A9A
:100D20002030784645454428742E6D2E6B2E2920A0
:100D30005049443A203078343234322848484B42C3
:100D4000206D6F6429205645523A2030783031307A
:100D5000340A00444553433A20742E6D2E6B2E20E6
:100D60006B6579626F617264206669726D7761721A
:100D70006520666F722048484B42206D6F640A0000
:100D80000A092D2056657273696F6E202D0A000ABC
:100D90006D6F7573653A206F66660A000A6D6F7530
:100DA00073653A206F6E0A000A6B6579626F617233
:100DB000643A206F66660A000A6B6579626F617239
:100DC000643A206F6E0A000A6D61747269783A2085
:100DD0006F66660A000A6D61747269783A206F6EF8
:100DE0000A000A64656275673A206F6E0A000A6439
:100DF000656275673A206F66660A000A0A626F6F5D
:100E0000746C6F616465722E2E2E2000433E2000AC
:100E100011241FBECFEFDAE0DEBFCDBF04B603FE64
:100E200027C08091D7049091D804A091D904B091A3
:100E3000DA048730904BA740B04BD1F41092D7041E
:100E40001092D8041092D9041092DA0414BE84B718
:100E5000877F84BF0FB6F894A89580916000886161
:100E600080936000109260000FBEE0E0FFE3099500
:100E700011E0A0E0B1E0ECEBFAE502C005900D92C4
:100E8000A63AB107D9F724E0A6EAB1E001C01D9265
:100E9000A73DB207E1F70E940D0F0C945C2D0C9456
:100EA0000000FF93EF93E091A601F091A701309726
:100EB00009F00995EF91FF910895FC01859180302B
:100EC00011F0EFDFFBCF0895FF27E0E230E247FFAC
:100ED0000CC0419597FF09C0EDE260957095809533
:100EE0009095611D711D811D911D27FF02C02195E7
:100EF00030E350E2AA27660F771F881F991FAA1FA9
:100F0000A41710F0A41B63955A95A9F7AA3008F00E
:100F1000A95FA05DAF93F3956115710581059105FA
:100F200041F7ED3211F4EF93F395F21718F43F9374
:100F3000F395FBCF8F91B5DFFA95E1F70895E9912D
:100F4000F9918591803021F0853219F0AADFF9CF2F
:100F5000089520E0E89455915532C1F3503311F4CF
:100F6000689455915A3348F4505390F3220F022E4F
:100F7000220F220F200D250FF4CF0EF42195899119
:100F80009991533619F3533729F1533559F1BC016F
:100F900088279927E8945C3621F48991999168947F
:100FA0005591543639F446EF7EF077FF0DC08FEF40
:100FB0009FEF0AC055374AE039F0583540E121F03B
:100FC000523642E009F00895FF93EF937DDFEF91F1
:100FD000FF91B7CFFF93EF93FC0181918030B9F37C
:100FE00060DFFBCFFF93EF9368DFF1CFDF93CF9309
:100FF000CDB7DEB72596A3DFCF91DF910895462FB9
:1010000050E04830510580F5FA01EA5AFF4FDC0103
:1010100012968C910C94422D882331F183E692E054
:101020000895882309F184E492E008958823E1F08B
:1010300089E392E008958823B9F08EE092E0089564
:10104000882391F08FEE91E00895882369F082EA79
:1010500091E00895882341F085E991E0089588237F
:1010600019F082E891E0089580E090E008958FEF14
:1010700084B980E485B957985F9A87B18F7387B92F
:1010800088B1806C88B92E9A2F98E0EBF1E011922C
:1010900081E0E83BF807D9F7E8EAF1E080EB91E07E
:1010A00011928E179F07E1F780EB91E09093BB01BF
:1010B0008093BA0188EA91E09093B9018093B801D6
:1010C0000895EF92FF920F931F93CF93DF93809138
:1010D000B8019091B9012091BA013091BB013093D0
:1010E000B9012093B8019093BB018093BA01C0E08D
:1010F000D0E0EE24E394F12C0FEF10E020E030E09C
:1011000085B1807C8C2BA90193E0440F551F9A95E3
:10111000E1F7842B85B98AE18A95F1F700C0E09167
:10112000B801F091B901EC0FFD1F808190E0022E13
:1011300002C0959587950A94E2F780FD2F9A95E372
:101140009A95F1F70000E6B52E988AE18A95F1F7B5
:1011500000C04091BA015091BB01DA01AC0FBD1F34
:101160004F9B0AC0C701022E01C0880F0A94EAF7FC
:1011700080959C91892308C06C91C701022E01C003
:10118000880F0A94EAF7862B8C9386B56E2F70E051
:101190008E1728F086B590E0861B970B06C0E6B543
:1011A000C801861B970B8E0F911D069758F0E09192
:1011B000B801F091B901EC0FFD1F8081FA01EC0F2D
:1011C000FD1F80839AE19A95F1F700C02F982E9A1F
:1011D0008BE291E00197F1F700C000002F5F3F4FD5
:1011E0002830310509F08CCFA091BA01B091BB0134
:1011F000AC0FBD1FE091B801F091B901EC0FFD1FDC
:101200009C918081981751F00E9462246093BC01E8
:101210007093BD018093BE019093BF012196C830A9
:10122000D10509F06BCF8091CE04853021F08091FB
:10123000CE04811111C06091BC017091BD018091FB
:10124000BE019091BF010E949824613177428105CF
:10125000910510F00E94E32381E0DF91CF911F916F
:101260000F91FF90EF9008952091BA013091BB014A
:10127000F901E80FF11D8081089508950895569AA7
:1012800081FF02C05E9A08955E98089588E0809379
:10129000CC001092CD00E9ECF0E080818069808381
:1012A000808188608083EAECF0E080818083EBECD1
:1012B000F0E080818083559A5D98789408959091AC
:1012C000C1012091C0019217C1F030E0F901EE5345
:1012D000FE4F80812F5F3F4FA90155272093C0010A
:1012E000692F70E0461B570B921708F05395433057
:1012F00051050CF05D9890E008958FEF9FEF0895F1
:101300009091C80095FFFCCF8093CE0008951F9266
:101310000F920FB60F9211242F933F934F935F9329
:101320008F939F93EF93FF938091C10190E0AC0165
:101330004F5F5F4F2091C001241741F03091CE00E4
:10134000FC01EE53FE4F30834093C1013091C10147
:10135000822F90E0432F50E0841B950B321708F04A
:10136000939503970CF45D9AFF91EF919F918F9164
:101370005F914F913F912F910F900FBE0F901F9053
:1013800018958091DC02089508950895CF93DF9316
:101390008D3C9105B9F1B8F4853B9105A9F148F46C
:1013A000833B9105D1F1843B9105D1F5D0E0C0E2BA
:1013B0003BC0873B910571F150F18C3C910581F563
:1013C000D0E0C8E031C08A3E9105C1F040F4823ED1
:1013D0009105B1F0893E910519F5D0E124C0813223
:1013E00022E0920749F0833222E09207D9F08A384E
:1013F0009140B1F4D2E017C0D4E015C0D0E213C0E0
:10140000D0E411C0D0E80FC0D0E0C1E00DC0D0E002
:10141000C2E00AC0D0E0C4E007C0D0E0C0E104C030
:10142000D0E001C0D1E0C0E08DEF0E94800983E0F0
:101430000E94800983E00E9480098D2F0E9480090C
:101440008C2FDF91CF910C948009CF93DF93EC0127
:101450008DEF0E94800985E00E94800982E00E9451
:10146000800988810E94800989810E9480098A817F
:101470000E9480098B81DF91CF910C948009CF93DA
:10148000DF93EC018DEF0E94800989E00E948009C2
:1014900081E00E94800988810E94800980E00E948A
:1014A00080098A810E9480098B810E9480098C8139
:1014B0000E9480098D810E9480098E810E9480098E
:1014C0008F81DF91CF910C9480090895089508953C
:1014D0008091DC0208950C945F09EF92FF920F93C4
:1014E0001F93CF938C010E9456247C01C0E0C7015A
:1014F0000E946E2480179107B0F40E945F098F3F0D
:101500002FEF920771F09C0133272D30310549F000
:101510002A30310541F0EC2FF0E0EC53FD4F808391
:10152000CF5FC73120F3EC2FF0E0EC53FD4F10827A
:1015300084EC92E0CF911F910F91FF90EF9008956E
:101540000C94800981B3881F8827881F0895879A83
:101550008F9A089585B7806885BF85B7806885BFF5
:101560000E94A70A86988E9A809888988198899870
:10157000559A5D980C944609879A8F9808958FB173
:10158000817008958FB18695817008958FB186FB23
:10159000882780F908958093DC020895CF93DF9324
:1015A000FC018491EF012196882321F00E9480099B
:1015B000FE01F7CFDF91CF910895CF93DF93CEEA6D
:1015C000D2E00E945F098F3F2FEF920759F09F935F
:1015D0008F93DF93CF930E94F6070F900F900F9099
:1015E0000F90EFCFDF91CF9108950E94CE0A2FEF99
:1015F00089E698E1215080409040E1F700C000006A
:1016000084E690E00E946D0A8093C2029093C30228
:101610009F938F9381EB92E09F938F930E94F607A5
:101620000E94DD0A0F900F900F900F908091C202E0
:101630009091C30208950E94E21690931501809341
:1016400014010E94871C80E091E00E94DD160E9438
:10165000BC0A0E94C60A8111FCCF89E393E00E9474
:101660005D072FEF85EB95E3215080409040E1F737
:1016700000C0000085E393E00E94F50AEFEFFBE471
:101680002DE1E150F0402040E1F700C000000E9451
:10169000DD0A81E393E00E94F50AFC018081863730
:1016A00021F08DE293E00C94F50A089584E193E033
:1016B0000E945D078EE093E00E94F50A0E94A70A4F
:1016C0000E94871C80911401909115010C94DD16E5
:1016D000809126018093C90408959F92AF92BF9292
:1016E000CF92DF92EF92FF920F931F93CF93DF93EE
:1016F00082E0B82E05EE14E09BEEE92E94E0F92E80
:10170000AA24A39423E0922E33EDC32E34E0D32EEB
:101710000E946B0AEC01019609F441C08091DD0240
:101720008130F9F028F0823009F1833021F134C0A2
:10173000CE3FD10519F4A092DD02EACFC038D10521
:1017400028F4DF93CF93FF92EF9204C0DF93CF93FF
:101750001F930F930E94F6070F900F900F900F901A
:10176000D7CF2297C9F4B092DD02D2CF2197A1F44E
:101770009092DD02CDCF8091B80480FF0AC0DF9344
:10178000CF93DF92CF920E94F6070F900F900F90A9
:101790000F908C2F0E94CB0A1092DD02B9CF80915E
:1017A000DF0281112BC08091DE02811118C00E94DE
:1017B000C20A811114C00E94BF0A882381F00E94CE
:1017C000E2168A509140D1F00E94871C8091260138
:1017D0008093C904109226018AE091E00DC00E9416
:1017E000E2168B51914051F00E94871C8091C904F0
:1017F000809326018BE191E00E94DD160E94C20ACF
:10180000811107C00E94C60A882319F06E9A769843
:1018100002C06E9A769ADF91CF911F910F91FF903F
:10182000EF90DF90CF90BF90AF909F9008954F9230
:101830005F926F927F928F929F92AF92BF92CF9260
:10184000DF92EF92FF92CF938331B1F150F48C305D
:1018500009F440C0813109F47DC18B3009F081C1A8
:101860000EC0883361F020F4883109F419C179C1C0
:10187000873409F440C18C3409F429C172C18FEA5C
:1018800094E00E945D078AE994E00E945D0783E787
:1018900094E00E945D0788E594E00E945D0786E47D
:1018A00094E00E945D07C091DF02C11111C086E281
:1018B00094E00E945D0759C10E941B0B89E593E0EB
:1018C0000E94F50A83E593E00E94F50A0E94560BF8
:1018D000C1E04BC18DE094E00E945D070E94E216DA
:1018E0008A50914019F085E391E002C08FE291E0C7
:1018F0009F938F938FEF93E09F938F930E94F607B0
:101900008091DE021F928F9380EF93E09F938F93DD
:101910000E94F6070E94BF0A2DB73EB7285F3F4FCF
:101920000FB6F8943EBF0FBE2DBF882339F00E943A
:10193000C60A811106C08AE391E005C08DE391E0FB
:1019400002C081E491E09F938F9386EE93E09F9392
:101950008F930E94F6070E94A20A1F928F938BEC2E
:1019600093E09F938F930E94F6078091DF021F926E
:101970008F938AEB93E09F938F930E94F607809159
:10198000CE042DB73EB7245F3F4F0FB6F8943EBF4D
:101990000FBE2DBF8823B9F08091CE048130B1F005
:1019A0008091CE048230A9F08091CE048330A1F0E2
:1019B0008091CE04843099F08091CE04853091F0EE
:1019C00086E791E011C08EE491E00EC086E491E0DC
:1019D0000BC089E591E008C081E691E005C08BE687
:1019E00091E002C088E791E09F938F938BEA93E0A8
:1019F0009F938F930E94F6078091CC041F928F9340
:101A000082E993E09F938F930E94F6070E946224DD
:101A10006B017C0128EE33E040E050E00E94202D75
:101A200029013A018CE3882E912CA12CB12CCA01FA
:101A3000B901A50194010E94202D7F936F93C301EA
:101A4000B20120E13EE040E050E00E94202DA501DF
:101A500094010E94202D3F932F93C701B60120E8E7
:101A60003EEE46E350E00E94202D1F922F93C701C7
:101A7000B60120E03CE546E255E00E94202D3F9370
:101A80002F9385E793E09F938F930E94F6078DB77E
:101A90009EB742960FB6F8949EBF0FBE8DBF18CF6B
:101AA0008091DF02811160C0C091DE02CC2339F049
:101AB0008AE693E00E945D071092DE0256C080E63F
:101AC00093E00E945D0781E08093DE0201CF0E94D7
:101AD000A20AC82F882341F00E941B0B81E080934B
:101AE000C8048093DF0241C00E94560B1092C804C4
:101AF0001092DF02EDCE8091DF02811102C00E94C0
:101B00001B0B87E093E00E94F50A8CEF92E00E94A5
:101B1000F50A88EE92E00E94F50A81EE92E00E94BA
:101B2000F50A87ED92E00E94F50A80ED92E00E94AE
:101B3000F50A86EC92E00E94F50A8CEB92E00E9496
:101B4000F50A86EB92E00E94F50A8091DF0281118E
:101B5000BFCEBCCE0E94E216C1E08B51914029F469
:101B600003C0C091DF0201C0C0E08C2FCF91FF9075
:101B7000EF90DF90CF90BF90AF909F908F907F902D
:101B80006F905F904F900895CF93C82F0E941C23B1
:101B900082724C2F50E0FA013497E934F10508F0D5
:101BA000D0C0E25AFF4F0C94422D8BE12DC1811120
:101BB000CCC081E629C18111CAC082E625C181114C
:101BC000C8C083E621C18111C6C084E61DC1811150
:101BD000C4C085E619C18111C2C086E615C1811154
:101BE000C0C087E611C18111BEC088E60DC1811158
:101BF000BCC089E609C18111BAC08AE605C181115C
:101C0000B8C08BE601C18111B6C08CE6FDC0811160
:101C1000B4C08DE6F9C08111B2C08EE6F5C0811165
:101C2000B0C08FE6F1C08111AEC080E7EDC0811178
:101C3000ACC081E7E9C08111AAC082E7E5C081118B
:101C4000A8C083E7E1C08111A6C084E7DDC081118F
:101C5000A4C085E7D9C08111A2C086E7D5C0811193
:101C6000A0C087E7D1C081119EC088E7CDC0811197
:101C70009CC089E7C9C081119AC08AE7C5C081119B
:101C800098C081E3C1C0811196C082E3BDC08111BB
:101C900094C083E3B9C0811192C084E3B5C08111BF
:101CA00090C085E3B1C081118EC086E3ADC08111C3
:101CB0008CC087E3A9C081118AC088E3A5C08111C7
:101CC00088C089E3A1C0811186C080E39DC088E0FF
:101CD0009BC089E099C080E297C081117EC08DE2EF
:101CE00093C081117CC08DE38FC081117AC08BE5D8
:101CF0008BC0811178C08DE587C0882309F475C039
:101D00008CE782C0882309F472C08CE77DC0811102
:101D100070C08BE379C081116EC087E275C08111FC
:101D20006CC080E671C081116AC08CE26DC0811107
:101D300068C08EE269C0811166C08FE265C080E034
:101D400063C080E261C08AE05FC081E45DC082E47C
:101D50005BC083E459C084E457C085E455C086E481
:101D600053C087E451C088E44FC089E44DC08AE481
:101D70004BC08BE449C08CE447C08DE445C08EE481
:101D800043C08FE441C080E53FC081E53DC082E5AE
:101D90003BC083E539C084E537C085E535C086E5BD
:101DA00033C087E531C088E52FC089E52DC08AE5BD
:101DB0002BC081E229C080E427C083E225C084E2F1
:101DC00023C085E221C08EE51FC086E21DC08AE2E5
:101DD0001BC088E219C089E217C08FE515C08BE2ED
:101DE00013C08BE711C08DE70FC08CE50DC08CE5EB
:101DF0000BC08AE309C082E207C08EE705C08CE30E
:101E000003C08EE301C08FE30E94A00A81E0CF915E
:101E100008950E947B1080E0089584B7877F84BF77
:101E20000FB6F894A8958091600088618093600057
:101E3000109260000FBE90E080E80FB6F894809397
:101E40006100909361000FBE0E94F6130E9453142C
:101E50008091E20084608093E20089E09FE00E942C
:101E6000B8238EE295E00E945D0778948FEF909101
:101E7000CE048150943041F0EFE7FEE33197F1F763
:101E800000C000008111F3CF0E94AA0A82E295E00F
:101E90000E945D070E94680B81E195E00E945D074A
:101EA0000E94A11782E095E00E945D0782EF94E016
:101EB0000E945D070E94BF0A811123C08091CE0459
:101EC0008530F9F48EEE94E00E945D070E943E0991
:101ED0000E94E3230E94E3230E94E3230E94E32362
:101EE0000E94E3230E94E3230E94E3238091CC0419
:101EF000882301F30E940C248823E1F20E944F12F0
:101F0000D9CF0E94A5170E946D0BD4CF80910204F7
:101F10000895CF93DF9300D01F92CDB7DEB79C0119
:101F20008091CE04843019F593E099833B832A8312
:101F30009093E9008FEF9091E800815095FD06C0E5
:101F400095ED9A95F1F700008111F5CF8091E800A9
:101F500085FF0DC040E050E063E070E0CE010196E7
:101F60000E9465128091E8008E778093E8000F90C0
:101F70000F900F90DF91CF910895CF93DF9300D012
:101F80001F92CDB7DEB72091CE04243021F522E098
:101F900029839B838A8383E08093E9008FEF90916C
:101FA000E800815095FD06C095ED9A95F1F7000087
:101FB0008111F5CF8091E80085FF0DC040E050E031
:101FC00063E070E0CE0101960E9465128091E80006
:101FD0008E778093E8000F900F900F90DF91CF9154
:101FE00008952091CE042430F1F422E02093E900FA
:101FF0002FEF3091E800215035FD06C035ED3A95C0
:10200000F1F700002111F5CF2091E80025FF0BC06A
:1020100040E050E065E070E00E9465128091E800C9
:102020008E778093E8000895CF93DF932091CE04BC
:10203000243009F04AC0EC01809125018823E1F0A9
:10204000809126018823C1F085E08093E90081E832
:10205000815049F09091E80095FD05C09AE29A956B
:10206000F1F700C0F5CF8091E80085FF2EC040E079
:1020700050E060E270E019C081E08093E90081E8FF
:10208000815059F09091E80095FD07C0EFE3F1E031
:102090003197F1F700C00000F3CF8091E80085FF91
:1020A00014C040E050E068E070E0CE010E9465128C
:1020B0008091E8008E778093E80080E2FE01A2EE36
:1020C000B3E001900D928A95E1F7DF91CF910895E9
:1020D000CF93C091E002C1110BC00E946224643C06
:1020E00079408105910520F081E08093E002C1E014
:1020F0008C2FCF910895CF93C82F0E94681088230A
:1021000009F448C00FB607FE45C08091CE04843064
:1021100009F040C08091E9008F702091EC00922F6F
:10212000917020FD90E8892B94E09093E9009091C4
:10213000EB0090FF2CC09091EE0097FF28C090918B
:10214000190120911801291709F449C02091E800CC
:1021500025FF1DC0E0911601F0911701E90FF11D57
:1021600030819F5F20911A0192239093190130933F
:10217000F1009091E80095FDE2CF9091E80090FF8A
:10218000DECF9091E8009E779093E800D8CF8F70D3
:102190008093E9008091180190E0AC014F5F5F4FA0
:1021A00030911A01232F30E0242335234091190167
:1021B00050E02417350789F020911601309117015E
:1021C000F901E80FF91FC083809118018F5F90918A
:1021D0001A018923809318010BC08FEF0AC09091D8
:1021E000E80095FFD4CFC093F1008F708093E90091
:1021F00080E0CF91089582E495E00E945D07809190
:10220000CD04811109C00E94F6130E9453148091DD
:10221000E20084608093E20008958EE395E00E94DE
:102220005D071092CD0408950895089542E061EC91
:1022300081E00E946F1342E061EC82E00E946F1324
:1022400042E061EC83E00E946F1342E261EC84E0C3
:102250000E946F1342E261EC85E00C946F13809151
:10226000D004833009F455C030F4813071F08230ED
:1022700009F48EC008958A3009F47AC08B3009F4CD
:1022800060C0893009F09CC020C08091CF04813AA1
:1022900009F096C08091E800877F8093E8008091E4
:1022A000D3049091D404892B21F460E282EE93E070
:1022B00003C060E080E090E070E00E94B012809186
:1022C000E8008B778093E80008958091CF048132F5
:1022D00009F076C08091D3049091D404009719F04E
:1022E000049709F06DC08091E800877F8093E80033
:1022F0008091E80082FD05C08091CE048111F8CF65
:102300005FC08091F100809302048091E8008B7798
:1023100053C08091CF04813A09F052C08091D30418
:102320009091D404892B09F04BC08091E800877FFD
:102330008093E8008091E80080FFFCCF8091250128
:1023400036C08091CF048132D9F58091D304909129
:10235000D404892BA9F58091E800877F8093E80059
:102360000E94A4138091D104809325010C94871CB2
:102370008091CF04813221F58091E800877F80939E
:10238000E8000E94A4138091D2048093030408956E
:102390008091CF04813AA1F48091E800877F8093F7
:1023A000E8008091E80080FFFCCF809103048093D7
:1023B000F1008091E8008E778093E8000C94A413DC
:1023C0000895809102048093E1021092020480E05B
:1023D0000E943F090E944A180C94871C0C94E1113A
:1023E0000E9420248091E1028093020408950C94BD
:1023F000F011292F332723303105C9F060F4213043
:10240000310581F02230310509F041C08DE890E0BE
:102410002EE635E040C021323105E1F022323105AF
:1024200031F135C082E190E02BEF35E034C09927DF
:102430008130910549F028F0029749F5E6E4F5E08E
:1024400005C0EAE6F5E002C0EAE5F5E0849190E037
:102450009F0121C06530D8F4E62FF0E0EE0FFF1F9A
:10246000EF56FE4F2081318189E090E014C0653045
:1024700070F470E0FB01EE0FFF1FE957FE4F208163
:102480003181FB01EE57FE4F808190E004C080E077
:1024900090E020E030E0FA0131832083089580E16C
:1024A00089BD82E189BD09B400FEFDCF8091D800CD
:1024B0008F7D8093D8008091E00082608093E0005F
:1024C0008091E00081FDFCCF0895CF92DF92EF92E2
:1024D000FF920F931F93CF93DF93EC018B017A014F
:1024E0000E94C313811133C0E114F10439F0F701E4
:1024F00080819181081B190BC80FD91FC12CD12CC9
:102500000115110519F18091E80085FD16C0809133
:10251000E8008E778093E800E114F10449F0F701B8
:1025200080819181C80ED91ED182C08285E00FC002
:102530000E94C313882321F30AC089918093F1007C
:1025400001501109FFEFCF1ADF0ADACF80E0DF91E7
:10255000CF911F910F91FF90EF90DF90CF90089552
:102560002091D5043091D6042617370748F061151D
:10257000710539F42091E8002E772093E80001C01E
:10258000B901FC0120E06115710579F18091CE045B
:102590008823F1F18530F1F18091E80083FD3CC0A2
:1025A0008091E80082FD2EC08091E80080FFEBCF93
:1025B0002091F3008091F20090E0922B611571055B
:1025C00051F08830910538F421912093F100615049
:1025D00071090196F3CF21E0089709F020E080917E
:1025E000E8008E778093E800CECF2111CFCF0AC0CC
:1025F0008091CE04882361F0853061F08091E800FD
:1026000083FD0AC08091E80082FFF2CF80E0089548
:1026100082E0089583E0089581E008952091D50433
:102620003091D6042617370748F06115710539F443
:102630002091E8002E772093E80001C0B901FC0149
:1026400020E06115710591F18091CE04882309F491
:1026500040C0853009F43FC08091E80083FD3DC053
:102660008091E80082FD2FC08091E80080FFE9CFD3
:102670002091F3008091F20090E0922B611571059A
:1026800059F08830910540F424912093F10031965F
:10269000615071090196F2CF21E0089709F020E01E
:1026A0008091E8008E778093E800CBCF2111CCCFCA
:1026B0000AC08091CE04882361F0853061F080915A
:1026C000E80083FD0AC08091E80082FFF2CF80E03D
:1026D000089582E0089583E0089581E00895982F99
:1026E000973068F59093E900981739F07091EC00F5
:1026F0002091ED005091F00003C0242F762F50E080
:1027000021FD02C09F5FECCF3091EB003E7F309304
:10271000EB003091ED003D7F3093ED003091EB0008
:1027200031603093EB007093EC002093ED005093F8
:10273000F0002091EE0027FDE5CF80E008958F7036
:102740008093E90081E008958091CF0487FF11C054
:102750008091E80082FD05C08091CE048111F8CF00
:1027600011C08091E8008B770BC08091CE04882344
:1027700049F08091E80080FFF8CF8091E8008E77E3
:102780008093E80008952091E4003091E50095E6FB
:102790004091EC00842F817040FF23C08091E800BD
:1027A00080FD1DC08091CE04882399F0853099F07A
:1027B0008091EB0085FD11C04091E4005091E5004F
:1027C0002417350729F3915011F09A01E1CF84E0E5
:1027D000089582E0089583E0089581E0089580E0FF
:1027E00008954091E80042FFDDCF08950E946414EF
:1027F0000E946C14E0EEF0E0808181608083E8ED5F
:10280000F0E080818F77808319BCA7EDB0E08C91D8
:102810008E7F8C9380818F7E80831092CD0408956B
:102820000F931F93CF93DF930E9464140E946C1444
:10283000C8EDD0E088818F7788838881806888831D
:1028400088818F7D888319BC1092CE041092CA04AF
:102850001092CC041092CB0400EE10E0F8018081BD
:102860008B7F808388818160888342E060E080E0A4
:102870000E946F13E1EEF0E080818E7F8083E2EEB4
:10288000F0E0808181608083808188608083F801AE
:1028900080818E7F8083888180618883DF91CF9162
:1028A0001F910F910895E8EDF0E080818F7E808385
:1028B000E7EDF0E080818160808384E082BF81E089
:1028C0008093CD040C941014E8EDF0E080818E7FAD
:1028D00080831092E20008951092DA001092E100D5
:1028E00008951F920F920FB60F9211242F933F93CA
:1028F0004F935F936F937F938F939F93AF93BF9308
:10290000EF93FF938091E10082FF0BC08091E20082
:1029100082FF07C08091E1008B7F8093E1000E94DD
:1029200015118091DA0080FF1FC08091D80080FFD0
:102930001BC08091DA008E7F8093DA008091D900ED
:1029400080FF0DC080E189BD82E189BD09B400FE30
:10295000FDCF81E08093CE040E94FB1005C019BC1E
:102960001092CE040E940D118091E10080FF19C0E9
:102970008091E20080FF15C08091E2008E7F8093FD
:10298000E2008091E20080618093E2008091D800B3
:1029900080628093D80019BC85E08093CE040E94A9
:1029A000EE118091E10084FF30C08091E20084FF4D
:1029B0002CC080E189BD82E189BD09B400FEFDCF54
:1029C0008091D8008F7D8093D8008091E1008F7E28
:1029D0008093E1008091E2008F7E8093E2008091FD
:1029E000E20081608093E2008091CA04882311F0A4
:1029F00084E007C08091E30087FD02C081E001C050
:102A000083E08093CE040E94F7118091E10083FF60
:102A100029C08091E20083FF25C08091E100877F7B
:102A20008093E10082E08093CE041092CA048091EA
:102A3000E1008E7F8093E1008091E2008E7F8093A1
:102A4000E2008091E20080618093E20042E060E079
:102A500080E00E946F138091F00088608093F00006
:102A60000E941411FF91EF91BF91AF919F918F91AF
:102A70007F916F915F914F913F912F910F900FBE7A
:102A80000F901F9018951F920F920FB60F9211245E
:102A90002F933F934F935F936F937F938F939F9366
:102AA000AF93BF93CF93DF93EF93FF93C091E90070
:102AB000CF708091EC00D82FD17080FDD0E81092BB
:102AC000E9008091F000877F8093F00078940E9465
:102AD00087151092E9008091F00088608093F000E3
:102AE000CD2BCF70C093E900FF91EF91DF91CF9193
:102AF000BF91AF919F918F917F916F915F914F9116
:102B00003F912F910F900FBE0F901F9018951F931C
:102B1000CF93DF93CDB7DEB7AA970FB6F894DEBF99
:102B20000FBECDBFEFECF4E08091F100819324E083
:102B3000E73DF207C9F70E942F118091E80083FF5B
:102B400024C18091CF049091D004492F50E04A30A5
:102B5000510508F01AC1FA01E955FF4F0C94422DB6
:102B6000803881F0823809F010C18091D3048F70D1
:102B70008093E9008091EB0085FB882780F9109213
:102B8000E90006C08091CB049091CC049111826041
:102B90009091E800977F9093E8008093F100109265
:102BA000F100C8C0282F2D7F09F0EFC0882319F04D
:102BB000823061F0EAC08091D104813009F0E5C033
:102BC000933009F080E08093CC042BC08091D10435
:102BD000811127C08091D3048F7009F4D6C08093EF
:102BE000E9002091EB0020FF1CC0933021F480917C
:102BF000EB00806214C09091EB0090619093EB0029
:102C000021E030E0A90102C0440F551F8A95E2F788
:102C10004093EA001092EA008091EB008860809374
:102C2000EB001092E9008091E800877F86C0811157
:102C3000ACC01091D1041F778091E3008078812B84
:102C40008093E3008091E800877F8093E8000E94F2
:102C5000A4138091E80080FFFCCF8091E30080689E
:102C60008093E300111102C082E001C083E08093F1
:102C7000CE048BC08058823008F087C08091D10488
:102C80009091D2048C3D53E0950779F583E08A83D7
:102C90008AE289834FB7F894DE01139620E03EE084
:102CA00051E2E32FF0E050935700E49120FF03C07E
:102CB000E295EF703F5FEF708E2F90E0EA3010F0FA
:102CC000C79601C0C0968D939D932F5F243149F71D
:102CD0004FBF8091E800877F8093E8006AE270E050
:102CE000CE0101960E94B01214C0AE014F5F5F4F3B
:102CF0006091D3040E94F911BC01892B09F445C0ED
:102D00009091E800977F9093E80089819A810E94D2
:102D10000E138091E8008B778093E80036C08038EE
:102D2000A1F58091E800877F8093E8008091CA0434
:102D30008093F1008091E8008E778093E8000E94F4
:102D4000A41323C0811121C08091D1049091D20499
:102D500099270297D4F48091E800877F8093E80058
:102D60008091D1048093CA040E94A4138091CA0464
:102D7000811106C08091E30087FD02C081E001C09F
:102D800084E08093CE040E9416118091E80083FFB6
:102D90000AC08091E800877F8093E8008091EB0073
:102DA00080628093EB00AA960FB6F894DEBF0FBE48
:102DB000CDBFDF91CF911F91089590930904809327
:102DC0000804089580910804909109040895E09101
:102DD0000804F0910904309721F00190F081E02D72
:102DE000099480E00895EF92FF920F931F93CF9381
:102DF000DF93E0910804F09109043097B1F18C0160
:102E00000280F381E02D09958091B80482FF2DC0E6
:102E100080FF04C081E597E00E945D07E80110E2B1
:102E20008BE4E82E87E0F82E8091B80480FF0BC079
:102E300088811F928F93FF92EF920E94F6070F9066
:102E40000F900F900F90115021961111EDCF80919E
:102E5000B80480FF0AC089E497E0DF91CF911F9109
:102E60000F91FF90EF900C945D07DF91CF911F9130
:102E70000F91FF90EF900895E0910804F0910904FC
:102E8000309721F00480F581E02D09940895CF93C7
:102E9000DF9320910604309107042817390709F1C0
:102EA0009093070480930604E0910804F0910904CC
:102EB0003097B9F0EC010680F781E02D09958091FB
:102EC000B80482FF0EC080FF0CC0DF93CF938BE36A
:102ED00097E09F938F930E94F6070F900F900F90AB
:102EE0000F90DF91CF910895CF93DF932091040449
:102EF000309105042817390709F190930504809350
:102F00000404E0910804F09109043097B9F0EC0151
:102F10000084F185E02D09958091B80482FF0EC0F0
:102F200080FF0CC0DF93CF938BE297E09F938F934A
:102F30000E94F6070F900F900F900F90DF91CF91A6
:102F400008950E944D240C943708BF92CF92DF92CF
:102F5000EF92FF920F931F93CF93DF9300D000D097
:102F60001F92CDB7DEB70E9461080BE014E0F12C90
:102F70008F2D0E943409B82EF801C080C82639F47C
:102F8000F3940F5F1F4FF8E0FF12F2CF30C0809133
:102F9000B80481FD0E944B18D12CEE24E3948C2DB3
:102FA0008E21F9F0D982FA8291E08B2D8E2109F4DD
:102FB00090E09B830E9456248160782F9D838C83B0
:102FC00049815A816B818D810E947F1849815A8184
:102FD0006B817C818D810E94D023F80180818E25B8
:102FE0008083D394EE0CF8E0DF12D9CFC9CF8FEFF6
:102FF00089838A831B820E9456248160782F9D8357
:103000008C8349815A816B818D810E947F180E9437
:10301000CF230E9440270E94E71690910A04891747
:1030200041F10E94E71680930A049091B80492FF40
:103030000EC090FF0CC01F928F938CE597E09F937A
:103040008F930E94F6070F900F900F900F90809132
:103050000A040F900F900F900F900F90DF91CF9177
:103060001F910F91FF90EF90DF90CF90BF900C9445
:10307000E1230F900F900F900F900F90DF91CF9161
:103080001F910F91FF90EF90DF90CF90BF90089528
:103090000C943F090895EF92FF920F931F93CF93E3
:1030A000DF9385E797E00E945D07C0E0D0E084E30E
:1030B000E82E81E0F82E07E617E08C2F0E943409F5
:1030C0000E94BD23FF92EF921F928F93DF93CF93C5
:1030D0001F930F930E94F60721968DB79EB708960F
:1030E0000FB6F8949EBF0FBE8DBFC830D10529F72B
:1030F000DF91CF911F910F91FF90EF900895CF93A3
:10310000DF93CDB7DEB72B970FB6F894DEBF0FBEB7
:10311000CDBF942F4F83252F588769877A878B8758
:103120004A855B85452B31F02F3F31F481E09F3F8D
:1031300019F403C081E001C080E080FD07C04F8129
:10314000588569857A858B850E94D023DE0111968A
:1031500086E0FD0111928A95E9F785E0FE01379638
:1031600001900D928A95E1F749815A816B817C81AA
:103170008D819E810E94921F2B960FB6F894DEBF20
:103180000FBECDBFDF91CF910895CF93882309F46F
:103190006DC0C82F8CEF8C0F813A20F080E58C0F2A
:1031A0008E3248F48C2F0E94862A81115FC08C2FAA
:1031B0000E947A220CC080E28C0F883058F4C770CD
:1031C00081E001C0880FCA95EAF70E941F23CF91C2
:1031D0000C9463238BE58C0F833078F4C53A29F087
:1031E000C63A31F083E890E005C081E890E002C083
:1031F00082E890E0CF910C94471788E58C0F8531D9
:1032000068F5C83A89F0C93A91F0CA3A99F0CB3AD0
:10321000A1F0CC3AA9F0CD3AB1F0CE3AB9F0CF3A1C
:10322000C1F080E090E017C082EE90E014C089EE1B
:1032300090E011C08AEE90E00EC085EB90E00BC0EC
:1032400086EB90E008C083EB90E005C084EB90E053
:1032500002C087EB90E0CF910C947417C03F30F020
:103260008C2F0E94C625CF910C94B326CF91089540
:10327000882381F19CEF980F913A20F090E5980F08
:103280009E3218F40E94CA220DC090E2980F983026
:1032900058F4877091E001C0990F8A95EAF7892F59
:1032A0000E9425230C9463239BE5980F933020F410
:1032B00080E090E00C94471798E5980F953120F442
:1032C00080E090E00C947417803F20F00E942E263E
:1032D0000C94B3260895882321F00E941F230C9498
:1032E00063230895882321F00E9425230C946323EF
:1032F0000895CF92DF92EF92FF920F931F93CF9397
:10330000DF9300D000D01F92CDB7DEB76C0185E00F
:10331000F601DE01119601900D928A95E1F7F60112
:1033200040815181238134812115310531F05F3F86
:1033300031F491E04F3F19F403C091E001C090E0F7
:1033400090FDC5C2F601F280E580E2948FE0E822AC
:10335000722F3D832C836F2D8D810E94F6218C016D
:103360000E94F5210E94E520E12FE295EF708E2F5B
:1033700090E0FC01EF54FF4F0C94422D812F807F91
:103380001F70882311F01295107FFF2049F0112340
:1033900009F452C2812F0E9432230E9463234CC23F
:1033A000802F0E943819112309F491C2812F0E94A5
:1033B00038230F900F900F900F900F90DF91CF91C7
:1033C0001F910F91FF90EF90DF90CF900C946323AB
:1033D000812F807F1F70803211F01295107F0023A3
:1033E00019F0013009F12BC0FF20A9F0EE2059F1AE
:1033F000F1E0812FEF1228C00F900F900F900F90E7
:103400000F90DF91CF911F910F91FF90EF90DF9080
:10341000CF900C944223EE2021F081E0E81609F4CD
:1034200056C20E944B232DC0FF20E9F0E5E0EE15C7
:1034300008F44DC20E941C23812329F022C0FF20E2
:10344000F1F0E11015C0812F0F900F900F900F90A9
:103450000F90DF91CF911F910F91FF90EF90DF9030
:10346000CF900C946B19F4E0FE1508F430C209C03B
:10347000F601858180FFE0C18F708583E4CFE11084
:10348000EEC1812F61C1812F86958695837019F0D9
:103490008130B9F01CC2FF2019F0C801937002C03E
:1034A00080E090E00F900F900F900F900F90DF91C1
:1034B000CF911F910F91FF90EF90DF90CF900C94E0
:1034C0004717FF2019F0C801937002C080E090E018
:1034D0000F900F900F900F900F90DF91CF911F9151
:1034E0000F91FF90EF90DF90CF900C947417802F86
:1034F000FF2019F00E94C62502C00E942E260F90C0
:103500000F900F900F900F90DF91CF911F910F911F
:10351000FF90EF90DF90CF900C94B326812F8370B3
:1035200009F070C0F110D3C1202F22952695277085
:10353000220F220F602F6F70862F90E0A0E0B0E086
:103540006C017D01022E04C0CC0CDD1CEE1CFF1CA6
:103550000A94D2F704FF12C08FE090E0A0E0B0E040
:1035600004C0880F991FAA1FBB1F2A95D2F7BC0160
:10357000CD01609570958095909503C060E070E0F6
:10358000CB011695169513701230B1F040F56C29E9
:103590007D298E299F29113031F10F900F900F90C6
:1035A0000F900F90DF91CF911F910F91FF90EF90AF
:1035B000DF90CF900C940A216C297D298E299F29B8
:1035C0000F900F900F900F900F90DF91CF911F9160
:1035D0000F91FF90EF90DF90CF900C9424210E94E8
:1035E0000A21C701B6010F900F900F900F900F9016
:1035F000DF91CF911F910F91FF90EF90DF90CF90CF
:103600000C94F020FF2019F0812F817001C0869565
:10361000882309F45CC1202F229526952770220F5C
:10362000220F602F6F70862F90E0A0E0B0E06C0159
:103630007D01022E04C0CC0CDD1CEE1CFF1C0A9484
:10364000D2F704FF12C08FE090E0A0E0B0E004C029
:10365000880F991FAA1FBB1F2A95D2F7BC01CD0165
:10366000609570958095909503C060E070E0CB0107
:103670001695169513701230B1F040F56C297D291E
:103680008E299F29113031F10F900F900F900F90DC
:103690000F90DF91CF911F910F91FF90EF90DF90EE
:1036A000CF900C94D1216C297D298E299F290F90D0
:1036B0000F900F900F900F90DF91CF911F910F916E
:1036C000FF90EF90DF90CF900C94E3210E94D121E6
:1036D000C701B6010F900F900F900F900F90DF91E0
:1036E000CF911F910F91FF90EF90DF90CF900C94AE
:1036F000BF21003FC1F128F480E4800F803250F0F8
:1037000096C0023F09F45EC008F449C0033F09F4C3
:103710006CC08DC0F02FF071EF2E812F8F71FF20C4
:1037200051F00E945821802FEE2019F08295807F61
:103730008BCE8F7089CE0E947921802FEE2019F0D8
:103740008295807F01C08F700F900F900F900F9027
:103750000F90DF91CF911F910F91FF90EF90DF902D
:10376000CF900C947219FF20A9F084E08E1508F414
:10377000AEC0812F8F710F900F900F900F900F9010
:10378000DF91CF911F910F91FF90EF90DF90CF903D
:103790000C949E21E5E0EE1508F499C0EACFFF20D5
:1037A00099F0812F8F710F900F900F900F900F90C5
:1037B000DF91CF911F910F91FF90EF90DF90CF900D
:1037C0000C945821FF2069F3812F8F710F900F9077
:1037D0000F900F900F90DF91CF911F910F91FF905D
:1037E000EF90DF90CF900C947921FF2089F0812F0A
:1037F0008F710F900F900F900F900F90DF91CF91DE
:103800001F910F91FF90EF90DF90CF900C94432188
:103810000F900F900F900F900F90DF91CF911F910D
:103820000F91FF90EF90DF90CF900C943E21FF20FE
:1038300099F0EE2009F4B5CF802F0F900F900F90E4
:103840000F900F90DF91CF911F910F91FF90EF900C
:10385000DF90CF900C94C518EE2009F4B5CF802FDF
:103860000F900F900F900F900F90DF91CF911F91BD
:103870000F91FF90EF90DF90CF900C943819412F6B
:103880004F70602FC6010E94FF070F900F900F909E
:103890000F900F90DF91CF911F910F91FF90EF90BC
:1038A000DF90CF900C944020412F4F70602FC601C5
:1038B0000F900F900F900F900F90DF91CF911F916D
:1038C0000F91FF90EF90DF90CF900C9443250F90D5
:1038D0000F900F900F900F90DF91CF911F910F914C
:1038E000FF90EF90DF90CF9008950E943F230E94B9
:1038F0000E230E9463230E94E5270E94B32680E0E6
:1039000090E00E94471780E090E00C9474170E94AA
:103910002F230C94751C1F93CF93DF9300D000D0FE
:103920001F92CDB7DEB7942F4983252F5A836B831F
:103930007C838D834C815D81452B31F02F3F31F4A9
:1039400081E09F3F19F403C081E001C080E0182F9F
:10395000117080FD31C049815A816B817C818D81DC
:103960000E94F621292F22952F702C3030F42A3016
:10397000A0F42250223030F022C02C30C9F02F3079
:10398000B9F01DC0853A28F48430C0F4823028F4A0
:1039900015C090E2980F983088F0883E30F4803E51
:1039A00068F48450813A58F409C0803F41F406C05D
:1039B00093FB112710F903C010E001C011E0812F23
:1039C0000F900F900F900F900F90DF91CF911F915C
:1039D0000895CF93DF9300D000D01F92CDB7DEB70C
:1039E0000F900F900F900F900F90DF91CF9108954F
:1039F000CF93DF9300D000D000D0CDB7DEB72696AE
:103A00000FB6F894DEBF0FBECDBFDF91CF91089502
:103A10001F93CF93DF93C091130416E08091140499
:103A2000C81799F0D0E01C9FF0011D9FF00D1124E4
:103A3000EB5EFB4F4081518162817381848195816E
:103A40000E94F81C2196C770E9CFDF91CF911F919A
:103A50000895409145045091460460914704709147
:103A600048048091490490914A040C94F81CCF9327
:103A700080914A0482958F7009F05FC0809147045D
:103A8000882309F45AC080911304B09114047091F2
:103A90004504A0914604409148045091490491E0A6
:103AA0007F3F09F090E0692FC6E08B1709F445C00D
:103AB0004115510521F0AF3F21F020E003C021E086
:103AC00001C0262F90E020FD35C0C89FF001C99F9E
:103AD000F00D1124EB5EFB4F21812A132BC02081B6
:103AE000271328C02281211125C023813481241766
:103AF000350710F421503109241B350B283C3105C2
:103B0000C8F420914A042F70206120934A0426E0D3
:103B1000289FF001299FF00D1124E65EFB4F808164
:103B20008F708061808385E494E00E947919CF9141
:103B30000C94081D01968770B8CFCF910895AF926D
:103B4000BF92CF92DF92EF92FF920F931F93CF938A
:103B5000DF93CDB7DEB761970FB6F894DEBF0FBE27
:103B6000CDBF7C0185E0F701DE011D9601900D922D
:103B70008A95E1F7D7014C9111965C9111971296B5
:103B8000DC90129713960D911C9114973091450477
:103B9000609146048091480490914904009731F067
:103BA0006F3F31F421E03F3F19F403C021E001C031
:103BB00020E0B22FB170BB2E20FD6EC1A090470453
:103BC000AA2009F4CCC020914A040817190728F04C
:103BD000F801E81BF90BCF0104C080959095800F88
:103BE000911FCC24C394883C910580F0C12C207F88
:103BF00009F0A1C0702F198B088B6D2D89890E9447
:103C0000E91C85E494E00E947919BDC0822F807F71
:103C100009F056C0561315C0431313C0CD2CD11054
:103C200010C02F70206120934A040E94291D85E452
:103C300094E00E94791980914A04D70115968C93DB
:103C40005FC10115110531F05F3F31F481E04F3F55
:103C500019F403C081E001C080E080FD03C081E071
:103C60008D2502C080E090E0B82FB170CB2E80FF90
:103C70001CC0809113042091140436E0821709F4CB
:103C80001CC190E0389FF001399FF00D1124EB5ECC
:103C9000FB4F6181561306C06081461303C06281E9
:103CA000D61203C001968770E9CFCD2CDD2009F430
:103CB00027C180914A04816080934A04C12C20C1AD
:103CC000561308C0431306C0D11004C080914A04A3
:103CD000D701B6C04D875E87DF86702F198B088BA2
:103CE0006D2D89890E948B1C882399F1DD2089F133
:103CF00020914A04822F82958F7090E0029774F091
:103D0000809145049091460498878F8319861B877C
:103D10000A872C87CE0107960E94791986E0F70161
:103D2000A5E4B4E001900D928A95E1F70E94371D59
:103D30000E94291D11C0561781F14D875E87DF86CD
:103D4000702F198B088B6D2D89890E948B1C811116
:103D500038C0C7010E947919CC24C394D1C0081778
:103D6000190708F446C0F801E81BF90BCF01883C9D
:103D7000910508F443C0C12C702F198B088B6D2D51
:103D800089890E94E91CE5E4F4E086E0DF011D92E8
:103D90008A95E9F70E94291DB3C04313CECFD110F5
:103DA000CCCF80914A04F7018583C7010E9479191D
:103DB00086E0E5E4F4E0DF011D928A95E9F7CA2C7C
:103DC0009FC0DD2031F220914A04822F82958F70AE
:103DD00090E002970CF4A2CF8091450490914604A4
:103DE0009A8389831B821D830C832E83CE010196C7
:103DF00093CF80959095800F911FB9CFCD2CDD206A
:103E000009F4A7CF561333C0431331C020914A049D
:103E100020FD24C0822F82958F70482F50E04115DD
:103E20005105E1F0D70115962C9315974F305105A8
:103E300049F08F5F982F9295907F822F8F70892BFA
:103E400015968C93C7010E94791986E0F701A5E4C5
:103E5000B4E001900D928A95E1F79CCF86E0F701DE
:103E6000A5E4B4E001900D928A95E1F749C04D8731
:103E70005E87DF86702F198B088B6D2D89890E94D4
:103E80008B1C81114BCF80914A04816080934A043E
:103E9000C7010E94791934C0DD2009F45ACF4D873B
:103EA0005E87DF86702F198B088B6D2D89890E94A4
:103EB0008B1C882309F44DCF31CF702F198B088BC1
:103EC0006D2D89890E94F621292F22952F7022308D
:103ED00028F49F7039F0811105C00BC0243028F4FC
:103EE0009F7049F4805E883020F0C7010E947919E4
:103EF000BC2CCB2C05C0F7019581907F99F7F9CFA9
:103F00008C2D61960FB6F894DEBF0FBECDBFDF914A
:103F1000CF911F910F91FF90EF90DF90CF90BF90C6
:103F2000AF9008951F93CF93DF93CDB7DEB72C9753
:103F30000FB6F894DEBF0FBECDBF4F835887698799
:103F40007A878B879C87CE0107960E949F1D8823C6
:103F5000D1F09F8188852A853B85232B31F08F3FC7
:103F600031F481E09F3F19F403C081E001C080E09B
:103F700080FD47C04F81588569857A858B859C85F2
:103F80000E94F81C3EC086E0FE013796DE011196C5
:103F900001900D928A95E1F7FF81E8856A857B851E
:103FA0006115710531F0EF3F31F481E0FF3F19F405
:103FB00003C081E001C080E080FD23C02091140493
:103FC00030E0C9010196877099274091130450E0B1
:103FD00084179507F1F1F983EA837D836C8396E07A
:103FE000929FD001939FB00D1124AB5EBB4FFE0199
:103FF000319601900D929A95E1F7809314040E94F6
:10400000081D16E08091130490911404891771F132
:10401000189FC00111248B5E9B4F0E949F1D882317
:1040200029F1E09113041E9FF0011124EB5EFB4F78
:104030004081518162817381848195810E94F81C45
:104040008091130490E00196877099278093130460
:10405000D9CF0E94871C1092140410921304E5E437
:10406000F4E086E0DF011D928A95E9F72C960FB601
:10407000F894DEBF0FBECDBFDF91CF911F910895A1
:10408000DF92EF92FF920F931F93CF93DF93FC0188
:10409000892B09F488C0E12CF12CDD24D394EF01A5
:1040A00021968491853709F460C058F4843708F06C
:1040B0004EC0843008F068C08130D1F0823071F198
:1040C00072C0883709F45BC050F4863709F453C0D6
:1040D000873709F068C08E2D0E942C2352C09CE7C0
:1040E000980F903708F05FC08F770E9438194EC044
:1040F0008F010E5F1F4FFE01849190E2980F983060
:1041000050F48770FD2D01C0FF0F8A95EAF78F2FBD
:104110000E94322315C00E94C51814C08F010E5F83
:104120001F4FFE01849190E2980F983068F48770D9
:10413000FD2D01C0FF0F8A95EAF78F2F0E943823CB
:104140000E946323E80122C00E943819FBCFCF01EF
:104150000296FE01C491CC2361F0EFE9FFE03197B4
:10416000F1F700C00000C150F6CFCF010296FE016A
:10417000F490EC010BC00E941C23E82E07C00E94A3
:104180002F230E94632302C00E94C5188F2D88230D
:1041900041F0EFE9FFE03197F1F700C000008150F6
:1041A000F6CFFE017CCFDF91CF911F910F91FF9051
:1041B000EF90DF90089560938B0470938C0480934C
:1041C0008D0490938E040C94E023089560938F04E3
:1041D0007093900480939104909392040C94DF2345
:1041E0000F931F9300918F041091900420919104DC
:1041F00030919204602B712B822B932B60938F0450
:104200007093900480939104909392041F910F9166
:104210000C94DF230F931F9300918F04109190044F
:10422000209191043091920460237123822393237F
:1042300060938F0470939004809391049093920400
:104240001F910F910C94DF230F931F9300918F0404
:10425000109190042091910430919204602771276D
:104260008227932760938F04709390048093910426
:10427000909392041F910F910C94DF2360E070E003
:10428000CB010C94DB200F931F9341E050E060E0E2
:1042900070E08A019B0104C0000F111F221F331F11
:1042A0008A95D2F7C901B8011F910F910C94DB20B8
:1042B0000F931F9341E050E060E070E004C0440FB2
:1042C000551F661F771F8A95D2F780918B049091B6
:1042D0008C04A0918D04B0918E048A019B01082B5F
:1042E000192B2A2B3B2BC901B8011F910F910C945C
:1042F000DB200F931F9341E050E060E070E004C0CA
:10430000440F551F661F771F8A95D2F74095509529
:104310006095709580918B0490918C04A0918D0490
:10432000B0918E048A019B01082319232A233B2381
:10433000C901B8011F910F910C94DB200F931F93BB
:1043400041E050E060E070E004C0440F551F661F7C
:10435000771F8A95D2F780918B0490918C04A0915D
:104360008D04B0918E048A019B01082719272A2702
:104370003B27C901B8011F910F910C94DB200F93CB
:104380001F9300918B0410918C0420918D04309127
:104390008E04602B712B822B932B1F910F910C9409
:1043A000DB200F931F9300918B0410918C042091BC
:1043B0008D0430918E0460237123822393231F91F7
:1043C0000F910C94DB200F931F9300918B0410919D
:1043D0008C0420918D0430918E04602771278227F0
:1043E00093271F910F910C94DB2008958F929F9239
:1043F000AF92BF92DF92EF92FF920F931F93CF93F2
:10440000DF9300D000D01F92CDB7DEB76B837C83E3
:104410008D838A018C819D81892B31F01F3F31F47E
:1044200081E04F3F19F403C081E001C080E080FFCC
:1044300003C080E090E04DC08B818823D1F1809053
:104440008B0490908C04A0908D04B0908E04809189
:104450008F0490919004A0919104B0919204882AC5
:10446000992AAA2ABB2A8FE1E82EF12CD501C40192
:104470000E2C04C0B695A795979587950A94D2F708
:1044800080FD06C081E0E81AF10880F7D12C07C052
:10449000DE2CB8018E2D0E941A25019799F388E031
:1044A000189FF0011124E55BFB4FE00FF11DD08256
:1044B00009C088E0189FF0011124E55BFB4FE00F75
:1044C000F11DD08009831A8369817A818D2D0E9424
:1044D0001A250F900F900F900F900F90DF91CF91B2
:1044E0001F910F91FF90EF90DF90BF90AF909F9042
:1044F0008F90089590912501992379F1909126014B
:10450000992359F1982F9695969596959F31A1F0FC
:10451000E0912701F0912801E90FF11D877021E05A
:1045200030E0A90102C0440F551F8A95E2F7CA0185
:104530009181892B818308959091B80490FF29C0BF
:104540001F928F9381EA97E09F938F930E94F607C3
:104550000F900F900F900F900895209127013091A8
:104560002801F90132969FEF40E05191851789F0BB
:104570009F3F19F4511101C0942F4F5F4E31A9F79D
:104580009F3F39F0F901E90FF11D97FDFA958283FC
:104590000895089590912501992381F19091260124
:1045A000992361F1982F9695969596959F31A9F04C
:1045B000E0912701F0912801E90FF11D877021E0BA
:1045C00030E0A90102C0440F551F8A95E2F7CA01E5
:1045D000809591818923818308959091B80490FFFB
:1045E0001CC01F928F9383E897E09F938F930E9444
:1045F000F6070F900F900F900F900895E09127010C
:10460000F09128019F01225E3F4F9281891301C0E2
:1046100012823196E217F307C1F7089581E090E026
:10462000E0912701F0912801E80FF91F108201960F
:1046300080329105A9F708958091B704089590916B
:10464000B704892B8093B704089580959091B7049F
:1046500089238093B70408958093B7040895109236
:10466000B70408959091B604892B8093B6040895F9
:1046700080959091B60489238093B6040895109292
:10468000B6040895809395040E9456249093940450
:1046900080939304089510929504109294041092BC
:1046A000930408958091270190912801FC0131968F
:1046B0009C01205E3F4F80E0919191118F5FE21746
:1046C000F307D1F70895E0912701F0912801809137
:1046D000B7048083E0912701F091280190818091B7
:1046E000B604892B8083809195048823D9F10E9498
:1046F000562420919304309194048217930748F034
:104700000E9456242091930430919404821B930BB1
:104710000AC00E945624209193043091940420955D
:104720003095820F931F8C32914070F08091B804C5
:1047300080FF08C08FEB97E09F938F930E94F6074E
:104740000F900F900E944B23E0912701F0912801D8
:10475000908180919504892B80830E94522381113E
:104760000E944B2380912701909128010C94F3160D
:104770009093A7018093A60108958295982F937333
:1047800044E0949F900111248C7C86958695282B7B
:10479000822F8575880F2A7A2695822B0895089591
:1047A000CF93DF9300D000D01F92CDB7DEB70F902C
:1047B0000F900F900F900F90DF91CF910895089573
:1047C00008950C9448188091CE04843021F1109201
:1047D000B90420E488E190E00FB6F894A89580939E
:1047E00060000FBE2093600083B7817F846083BF29
:1047F00083B7816083BF7894889583B78E7F83BFAA
:104800000FB6F894A895809160008861809360004D
:10481000109260000FBE0895CF930E943D090E9440
:1048200061080E943E09C0E08C2F0E94340981116A
:1048300004C0CF5FC830C1F701C081E0CF910895B7
:104840000E944A180C94871C1F920F920FB60F9269
:1048500011248F939F93AF93BF938091B9048111DB
:1048600013C08091BA049091BB04A091BC04B09194
:10487000BD044196A11DB11D8093BA049093BB0461
:10488000A093BC04B093BD04BF91AF919F918F9151
:104890000F900FBE0F901F90189582E084BD93E09B
:1048A00095BD9AEF97BD80936E0008952FB7F89449
:1048B0008091BA049091BB04A091BC04B091BD0456
:1048C0002FBF08952FB7F8946091BA047091BB047C
:1048D0008091BC049091BD042FBF0895CF92DF92C8
:1048E000EF92FF920F931F932FB7F8944091BA0461
:1048F0005091BB046091BC047091BD042FBF6A014C
:104900007B01EE24FF248C0120E030E0C016D106AC
:10491000E206F30610F4415051099A01281B390BA5
:10492000C9011F910F91FF90EF90DF90CF900895F4
:10493000CF92DF92EF92FF920F931F932FB7F894CD
:10494000C090BA04D090BB04E090BC04F090BD04C9
:104950002FBF97018601061B170B280B390BC616B4
:10496000D706E806F90618F0C901B80106C0C90162
:10497000B80161507109810991091F910F91FF9050
:10498000EF90DF90CF9008951F920F920FB60F9285
:1049900011248F939F93AF93BF938091BA0490910A
:1049A000BB04A091BC04B091BD040196A11DB11D32
:1049B0008093BA049093BB04A093BC04B093BD044D
:1049C000BF91AF919F918F910F900FBE0F901F904D
:1049D00018950E94F613F8942FEF87EA91E621507C
:1049E00080409040E1F700C0000087E090EBDC01E0
:1049F0008093D7049093D804A093D904B093DA0499
:104A00009CE088E10FB6F894A895809360000FBEF3
:104A100090936000FFCFE82FF0E088E0989FE00DD2
:104A2000F11D1124E259FD4F9491892F8F709295B9
:104A30009F700895CF93C82FCB010E940B25E92FBB
:104A400090E040E1E49F90011124282B392B20387D
:104A5000310519F480E090E014C0E770F0E028E040
:104A6000C29FE00DF11D112424E0EE0FFF1F2A95D7
:104A7000E1F7E80FF91FEE0FFF1FE050F8498591AD
:104A80009491CF91089508958091C00480FF0BC048
:104A900060912C0185E0689FB001112475956795A0
:104AA000759567952BC081FF09C060912C0185E049
:104AB000689FB00111247595679520C082FF07C0DB
:104AC00060912C0185E0689FB001112417C090917E
:104AD000C1049923D1F060912B01961788F720919A
:104AE0002C0185E0289F90011124929FA001939FA3
:104AF000500D112470E0CA010E940C2D6038710520
:104B000040F46115710519F406C065E070E0862F68
:104B100008958FE7089581E008958091C00480FF93
:104B200008C060912A0170E0759567957595679545
:104B300021C081FF06C060912A0170E075956795DC
:104B400019C082FF04C060912A0170E010C09091EA
:104B5000C104992399F0609129019617A0F78091DB
:104B60002A01899FC001112470E00E940C2D603839
:104B7000710540F46115710519F406C061E070E03B
:104B8000862F08958FE7089581E00895803F21F4EE
:104B90000E944425819504C0813F29F40E94442548
:104BA0008093C4040895823F21F40E944425819596
:104BB00004C0833F29F40E9444258093C3040895D0
:104BC000893F19F40E948D2505C08A3F31F40E9467
:104BD0008D2581958093C50408958B3F21F40E9413
:104BE0008D25819504C08C3F29F40E948D258093EA
:104BF000C6040895843F21F48091C204816017C0E7
:104C0000853F21F48091C204826011C0863F21F467
:104C10008091C20484600BC0873F21F48091C2045C
:104C2000886005C0883F31F48091C2048061809320
:104C3000C20408958D3F21F48091C00481600BC0AF
:104C40008E3F21F48091C004826005C08F3F29F41B
:104C50008091C00484608093C0040895803F39F43B
:104C60008091C40487FF6CC01092C40469C0813F66
:104C700029F48091C4041816BCF362C09091C30457
:104C8000823F29F497FF5CC01092C30459C0833F50
:104C900019F41916CCF354C0893F41F48091C5042E
:104CA00018160CF04DC01092C5044AC08A3F29F472
:104CB0008091C50487FF44C0F6CF8B3F39F48091C3
:104CC000C60487FF3DC01092C6043AC08C3F29F449
:104CD0008091C6041816BCF333C0843F21F4809140
:104CE000C2048E7F17C0853F21F48091C2048D7F5E
:104CF00011C0863F21F48091C2048B7F0BC0873F97
:104D000021F48091C204877F05C0883F31F48091EF
:104D1000C2048F7E8093C20413C08D3F21F4809122
:104D2000C0048E7F0BC08E3F21F48091C0048D7F24
:104D300005C08F3F29F48091C0048B7F8093C0040D
:104D40008091C30481110EC08091C40481110AC0F6
:104D50008091C504811106C08091C604811102C0F2
:104D60001092C10408958091B80483FF7EC088EF3B
:104D700097E00E945D078091C2041F928F9383EF9A
:104D800097E09F938F930E94F60781EF97E00E9430
:104D90005D078091C304282F082E000C330B3F932E
:104DA0008F938EEE97E09F938F930E94F6078CEE81
:104DB00097E00E945D078091C404282F082E000C04
:104DC000330B3F938F9389EE97E09F938F930E94CD
:104DD000F60787EE97E00E945D078091C504282FB3
:104DE000082E000C330B3F938F9384EE97E09F9334
:104DF0008F930E94F60782EE97E00E945D078091F4
:104E0000C604282F082E000C330B3F938F938FED91
:104E100097E09F938F930E94F6078CED97E00E9496
:104E20005D078091C1041F928F9389ED97E09F9356
:104E30008F930E94F60787ED97E00E945D078091AF
:104E4000C0041F928F9384ED97E09F938F930E94ED
:104E5000F60781ED97E00E945D078DB79EB74C96EF
:104E60000FB6F8949EBF0FBE8DBF82EC94E00E94F7
:104E70003C170E9456249093BF048093BE0408956B
:104E80001F93CF93DF938091BE049091BF040E9443
:104E90006E24AC019091C104992321F020912D0141
:104EA00030E006C020912E018AE0289F9001112455
:104EB0004217530708F485C08091C304C091C4040D
:104EC000D091C5041091C604811107C0C11175C0ED
:104ED000D11173C0111171C074C09F3F19F09F5F51
:104EE0009093C104181624F40E9444258093C304AF
:104EF0008091C30487FF05C00E944425819580935B
:104F0000C3041C1624F40E9444258093C404809199
:104F1000C40487FF05C00E94442581958093C40482
:104F20006091C304662331F1C091C404CC2311F114
:104F3000062E000C770B880B990B0E94132C23E391
:104F400033E343E35FE30E94772C0E94DB2B609303
:104F5000C3046C2FCC0F770B880B990B0E94132C7A
:104F600023E333E343E35FE30E94772C0E94DB2BD0
:104F70006093C4041D1624F40E948D258093C504FB
:104F80008091C50487FF05C00E948D25819580937F
:104F9000C504111624F40E948D258093C6048091C7
:104FA000C60487FF05C00E948D2581958093C604A5
:104FB000DF91CF911F910C94B3269F3F09F08FCFC3
:104FC000A0CFDF91CF911F910895E2ECF4E085E04E
:104FD000DF011D928A95E9F71092C1041092C00476
:104FE00008958BE19AE00E945D071F9281E08F9304
:104FF0001F9285E08F938DEC99E09F938F930E9491
:10500000F6070F900F900F900F900F900F9008954C
:105010008330E9F128F4813061F0823009F108959C
:10502000853009F462C008F449C0863009F474C0C0
:10503000089580912E01262F30E0280F311D2F3F3B
:10504000310524F4680F60932E0103C08FEF809325
:105050002E0180912E011F928F9386E099E072C0FD
:1050600080912D01262F30E0280F311D2F3F310573
:1050700024F4680F60932D0103C08FEF80932D01FE
:1050800080912D011F928F9384EF98E05BC08091F7
:105090002C01262F30E0280F311D2F3F310524F43D
:1050A000680F60932C0103C08FEF80932C018091D7
:1050B0002C011F928F9381EE98E044C080912B01C8
:1050C000262F30E0280F311D2F3F310524F4680FC3
:1050D00060932B0103C08FEF80932B0180912B01F4
:1050E0001F928F938CEC98E02DC080912A01262F7F
:1050F00030E0280F311D2F3F310524F4680F6093F5
:105100002A0103C08FEF80932A0180912A011F9208
:105110008F9383EB98E016C080912901262F30E011
:10512000280F311D2F3F310524F4680F60932901AA
:1051300003C08FEF80932901809129011F928F93E3
:1051400088E998E09F938F930E94F6070F900F9045
:105150000F900F900895833081F128F4813059F039
:105160008230D1F00895853009F449C0B8F1863015
:1051700009F456C0089580912E01681720F4861B0B
:1051800080932E0102C010922E0180912E011F9259
:105190008F9389E898E054C080912D01681720F41E
:1051A000861B80932D0102C010922D0180912D014C
:1051B0001F928F9387E798E043C080912C01681776
:1051C00020F4861B80932C0102C010922C01809148
:1051D0002C011F928F9384E698E032C080912B01BE
:1051E000681720F4861B80932B0102C010922B01BC
:1051F00080912B011F928F938FE498E021C08091C2
:105200002A01681720F4861B80932A0102C010929D
:105210002A0180912A011F928F9386E398E010C0A3
:1052200080912901681720F4861B8093290102C010
:1052300010922901809129011F928F938BE198E0B0
:105240009F938F930E94F6070F900F900F900F90EF
:105250000895CF93C82F1F928F9380E29BE09F9376
:105260008F930E94F60781E090E0A0E0B0E0BC01DF
:10527000CD0104C0660F771F881F991FCA95D2F70A
:105280000E94E6200F900F900F900F90CF910C94FA
:10529000871CCF938732A8F58E3108F02BC180315F
:1052A00009F49FC0F8F4873009F464C0A8F486308C
:1052B00009F024C18091B804817F8E7F8093B80467
:1052C00085E29BE00E945D078CE09EE00E945D0706
:1052D00081E08093C8044CC08B30F1F18E3009F42A
:1052E0006CC00CC1863109F4B0C020F4813109F4DE
:1052F000EDC004C1893109F491C08B3109F449C072
:10530000FDC0883349F150F4893209F4F1C0853386
:1053100009F4EEC0873209F0F1C0EAC0833409F421
:10532000E7C028F48A3308F4E9C08953E4C088341C
:1053300009F0E4C00E94871C8BEF9DE00E945D078E
:105340002FEF83ED90E3215080409040E1F700C0C3
:1053500000000E94E9240CC08CE49BE05CC082EE5B
:105360009DE00E945D078091B80481608093B8043D
:10537000C1E0C9C08091B804C82FC17080FFEFCFD1
:105380008EEE9DE00E945D078091B804817F8E7F44
:105390003DC09091B80491FBCC27C0F981E0C827AB
:1053A000892FC0FB81F98093B804CC2319F085EDD7
:1053B0009DE027C087EC9DE02EC09091B80492FB41
:1053C000CC27C0F981E0C827892FC0FB82F98093E0
:1053D000B804CC2319F088EB9DE013C088EA9DE067
:1053E0001AC09091B80493FBCC27C0F981E0C8277C
:1053F000892FC0FB83F98093B804CC2351F08CE94A
:105400009DE00E945D078091B80481608093B8049C
:105410007AC08FE89DE00E945D07AACF80E89DE0FA
:105420000E945D0783E59DE00E945D078CE19DE0A1
:105430000E945D078EEE9CE00E945D0785EA9CE07D
:105440000E945D078AE79CE0E6CF8CE69CE00E9424
:105450005D070E94E7161F928F9382E59CE09F9361
:105460008F930E94F607809125011F928F938BE303
:105470009CE09F938F930E94F607809103041F92F4
:105480008F9388E29CE09F938F930E94F607809110
:1054900026011F928F9385E19CE09F938F930E943A
:1054A000F6070E9462249F938F937F936F938EEFF2
:1054B0009BE09F938F930E94F6078DB79EB7469609
:1054C0000FB6F8949EBF0FBE8DBF52CF0E94871CAF
:1054D000C091260181E0C827C0932601CC2329F082
:1054E00084EF9BE00E945D070EC089EE9BE093CFA6
:1054F00080E001C08D510E9429293ACF87EE9BE0C0
:105500000E945D07C0E08C2FCF910895CF93C82FE4
:105510008091C804813071F020F0823009F44BC0D2
:1055200042C1E0912701F09128018081823209F087
:105530003CC107C0E0912701F091280180818232AF
:1055400061F48C2F0E94170C811104C08C2F0E94D3
:1055500049292FC081E090E02CC08C2F0E94C40DFF
:10556000811126C0C431E1F070F4CB3081F0C0313C
:10557000D1F40E94F12788E19BE00E945D0782E060
:105580008093C80415C0C93259F0C83361F485E26C
:105590009BE00E945D078CE19BE00E945D0708C0D4
:1055A0001092C80404C186E19BE00E945D07FFC021
:1055B00081E08170FEC0C43228F5CE3108F0C1C050
:1055C000CB30A1F1D0F4C73009F0D3C08EE1809385
:1055D0002E0182E380932D018AE080932C0184E1E7
:1055E00080932B0188E080932A0188E2809329012F
:1055F0008CEB99E00E945D07BFC0C33149F1C43113
:10560000C1F0B7C0CB3409F4A9C028F4C93289F07D
:10561000C83361F0AEC0C13509F49EC0C23509F48B
:1056200099C0CE3409F0A5C06AE09EC00E94F1275F
:10563000A3C08091C704882319F01092C7049CC0AE
:1056400089EC99E00E945D0781E08093C804B1C0B5
:1056500083EA99E00E945D0781E999E00E945D0775
:1056600080912E011F928F938EE899E09F938F93E4
:105670000E94F6078CE899E00E945D078AE799E0AE
:105680000E945D0780912D011F928F9387E799E01B
:105690009F938F930E94F60785E799E00E945D072C
:1056A00086E699E00E945D0780912C011F928F93FE
:1056B00083E699E09F938F930E94F60781E699E035
:1056C0000E945D0780E599E00E945D0780912B01B3
:1056D0001F928F938DE499E09F938F930E94F6071A
:1056E0008BE499E00E945D0786E399E00E945D07E4
:1056F00080912A011F928F9383E399E09F938F9368
:105700000E94F60781E399E00E945D078AE199E033
:105710000E945D07809129011F928F9387E199E094
:105720009F938F930E94F60785E199E00E945D07A1
:105730008DB79EB748960FB6F8949EBF0FBE8DBF2B
:105740001BC0CE51EC2FF0E0E556FE4F80818093D8
:10575000C70412C061E003C061E006C06AE0809146
:10576000C7040E94082808C08091C7040E94AB2883
:1057700003C08AEB99E013C08091C704882369F0C5
:105780001F928F9384EB99E09F938F930E94F6076B
:105790000F900F900F900F9004C081EB99E00E9442
:1057A0005D0781E006C01092C80480E002C080E07E
:1057B00000CFCF9108950E94E22B6894B1110C9410
:1057C000712C08950E94562C88F09F5798F0B92F9D
:1057D0009927B751B0F0E1F0660F771F881F991F26
:1057E0001AF0BA95C9F714C0B13091F00E94702C2C
:1057F000B1E008950C94702C672F782F8827B85F3C
:1058000039F0B93FCCF3869577956795B395D9F77D
:105810003EF490958095709561957F4F8F4F9F4F87
:105820000895E89409C097FB3EF490958095709593
:1058300061957F4F8F4F9F4F9923A9F0F92F96E9DC
:10584000BB279395F695879577956795B795F11151
:10585000F8CFFAF4BB0F11F460FF1BC06F5F7F4FEE
:105860008F4F9F4F16C0882311F096E911C0772300
:1058700021F09EE8872F762F05C0662371F096E809
:10588000862F70E060E02AF09A95660F771F881FD8
:10589000DAF7880F9695879597F9089557FD9058F0
:1058A000440F551F59F05F3F71F04795880F97FBE4
:1058B000991F61F09F3F79F087950895121613069E
:1058C0001406551FF2CF4695F1DF08C016161706CD
:1058D0001806991FF1CF8695710561050894089502
:1058E000E894BB2766277727CB0197F908950E9494
:1058F0008A2C0C94FB2C0E94ED2C38F00E94F42C86
:1059000020F0952311F00C94E42C0C94EA2C112433
:105910000C94712C0E944E2C70F3959FC1F3950F3F
:1059200050E0551F629FF001729FBB27F00DB11D23
:10593000639FAA27F00DB11DAA1F649F6627B00DB3
:10594000A11D661F829F2227B00DA11D621F739F9C
:10595000B00DA11D621F839FA00D611D221F749FAA
:105960003327A00D611D231F849F600D211D822FF1
:10597000762F6A2F11249F5750409AF0F1F0882318
:105980004AF0EE0FFF1FBB1F661F771F881F915045
:105990005040A9F79E3F510580F00C94E42C0C94E4
:1059A000712C5F3FE4F3983ED4F386957795679525
:1059B000B795F795E7959F5FC1F7FE2B880F911D6F
:1059C0009695879597F9089597F99F6780E870E015
:1059D00060E008959FEF80EC089500240A94161665
:1059E000170618060906089500240A9412161306CD
:1059F000140605060895092E0394000C11F488235B
:105A000052F0BB0F40F4BF2B11F460FF04C06F5F76
:105A10007F4F8F4F9F4F089597FB072E16F40094EA
:105A200007D077FD09D00E94482D07FC05D03EF431
:105A3000909581959F4F0895709561957F4F08953A
:105A4000A1E21A2EAA1BBB1BFD010DC0AA1FBB1F82
:105A5000EE1FFF1FA217B307E407F50720F0A21BF4
:105A6000B30BE40BF50B661F771F881F991F1A9461
:105A700069F760957095809590959B01AC01BD018B
:105A8000CF010895EE0FFF1F0590F491E02D0994CA
:105A9000AA1BBB1B51E107C0AA1FBB1FA617B70754
:105AA00010F0A61BB70B881F991F5A95A9F7809570
:0C5AB0009095BC01CD010895F894FFCF43
:105ABC00C109670AC409660AC509680A3F0A250AAA
:105ACC00650AC6090A01E2020000FF860F1410F1F4
